:100000000C942A000C9447000C9447000C94470071
:100010000C9447000C9447000C9447000C94470044
:100020000C9447000C9447000C9447000C94470034
:100030000C9447000C9447000C9447000C94470024
:100040000C9447000C9447000C9447000C94470014
:100050000C94470011241FBECFE5D8E0DEBFCDBF12
:1000600012E0A0E6B0E0E4E3F9E002C005900D92F2
:10007000AC3CB107D9F722E0ACECB2E001C01D9274
:10008000AD3CB207E1F70E94F2010C9498040C9485
:10009000000081B3806381BB8FB5826A8FBD8EB54E
:1000A0008C618EBD8EE390E097BD86BD1BBC1ABCF3
:1000B000089581B3836081BB0895CF92DF92EF9260
:1000C000FF926B017C0120E030E0A9010E94E50372
:1000D0008823C4F0909A2091600030916100409193
:1000E000620050916300C701B6010E94E90320E05D
:1000F00030E048E752E40E94E9030E9490037BBD90
:100100006ABD1AC090988091600090916100A091A2
:100110006200B0916300BC01CD019058A701960127
:100120000E94E90320E030E048E752E40E94E9033E
:100130000E9490037BBD6ABDFF90EF90DF90CF904F
:100140000895CF92DF92EF92FF926B017C0120E045
:1001500030E0A9010E94E5038823C4F0919A209120
:100160006000309161004091620050916300C701CE
:10017000B6010E94E90320E030E048E752E40E9423
:10018000E9030E94900379BD68BD1AC091988091DF
:10019000600090916100A0916200B0916300BC0189
:1001A000CD019058A70196010E94E90320E030E0BC
:1001B00048E752E40E94E9030E94900379BD68BDBC
:1001C000FF90EF90DF90CF90089583EB87BBC09AAC
:1001D000BE98C49A81E58DB908958FB9779BFECFFB
:1001E0000895C198C4980E94ED00C19AC49A0895D8
:1001F0008F929F92AF92BF92CF92DF92EF92FF9237
:100200000F931F93CF93DF936C01C19AC498FC01A5
:1002100001900020E9F731975F01A81AB90A1A1472
:100220001B0454F5E12CF12C812C912C1FC0F801FA
:10023000808190E08097FC01EE0FFF1FEE0FFF1F03
:10024000E80FF91FEC0FFD1FE451FF4F80810E9462
:10025000ED002196C530D10551F780E00E94ED00F8
:10026000FFEFEF1AFF0AAE14BF0431F0C82DD92DED
:1002700086010E0D1F1DDBCFC49ADF91CF911F9118
:100280000F91FF90EF90DF90CF90BF90AF909F9035
:100290008F900895C0982FEF81EE94E02150804018
:1002A0009040E1F700C00000C09A08950E94E50068
:1002B0000E944A0181E20E94F10080EC0E94F1005C
:1002C00087E00E94F10083E10E94F10080E20E9439
:1002D000F1008CE00E94F1000895CF93C62F806852
:1002E0000E94F1008C2F80640E94F100CF9108954C
:1002F00060E070E080E89FE30E945D0060E070E0F5
:1003000080E89FE30E94A100089560E070E0CB01C7
:100310000E94A10060E070E0CB010E945D002FEF21
:1003200081EE94E0215080409040E1F700C0000051
:1003300063E373E383E39FE30E94A10089B38C30FE
:10034000E9F760E070E0CB010E94A1002FEF81EEA1
:1003500094E0215080409040E1F700C000000895F3
:1003600060E070E0CB010E945D0060E070E0CB01D6
:100370000E94A1002FEF81EE94E021508040904038
:10038000E1F700C0000063E373E383E39FE30E94AF
:100390005D0089B38C30E9F760E070E0CB010E942A
:1003A0005D002FEF81EE94E0215080409040E1F716
:1003B00000C0000008958091CC028F5F8093CC0232
:1003C0008E3019F40E94850108958F3051F460E059
:1003D00070E0CB010E94A10060E070E0CB010E94C0
:1003E0005D0008950E94E5000E9456010E944900A8
:1003F0000E9459001ABA89B38C3059F40E947801CE
:1004000084E690E00E94F80061E080E00E946D01C7
:10041000F2CF89B38830A9F460E070E080E49FE314
:100420000E94A10060E070E080E89FE30E945D0010
:1004300082E790E00E94F80061E080E00E946D0198
:10044000DACF89B38430A9F460E070E080E49FE300
:100450000E945D0060E070E080E89FE30E94A100E0
:100460008DE790E00E94F80061E080E00E946D015D
:10047000C2CF89B38831A9F460E070E080E09FE3E7
:100480000E94A10060E070E080E89FE30E945D00B0
:1004900088E890E00E94F80061E080E00E946D0131
:1004A000AACF89B38630A9F460E070E080E09FE3D2
:1004B0000E94A10060E070E080E89FE30E945D0080
:1004C00083E990E00E94F80061E080E00E946D0105
:1004D00092CF89B38031A9F460E070E080E89EE3B8
:1004E0000E94A10060E070E080E89FE30E945D0050
:1004F0008EE990E00E94F80061E080E00E946D01CA
:100500007ACF89B38033A9F460E070E080E89EE39D
:100510000E94A10060E070E080E89FE30E945D001F
:1005200089EA90E00E94F80061E080E00E946D019D
:1005300062CF89B38230A9F460E070E080E89FE385
:100540000E94A10060E070E080E89EE30E945D00F0
:1005500084EB90E00E94F80061E080E00E946D0171
:100560004ACF89B38330A9F460E070E080E89FE36C
:100570000E94A10060E070E080E89EE30E945D00C0
:100580008FEB90E00E94F80061E080E00E946D0136
:1005900032CF89B3803269F46DEC7CEC8CE49EE35D
:1005A0000E94A10060E070E080E89FE30E945D008F
:1005B00022CF89B3813069F460E070E080E89FE386
:1005C0000E94A1006DEC7CEC8CE49EE30E945D0037
:1005D00012CF89B38F3059F40E9485018AEC90E0E4
:1005E0000E94F80061E080E00E946D0104CF89B3B1
:1005F0008C3359F40E94B00187ED90E00E94F8001E
:1006000061E080E00E946D01F6CE89B38F3359F42A
:100610000E94DB0183EE90E00E94F80061E080E040
:100620000E946D01E8CE89B38C3169F46DEC7CECED
:100630008CE49EE30E94A10060E070E080E89FE30C
:100640000E945D00D8CE89B38E3069F46DEC7CECED
:100650008CE49EE30E945D0060E070E080E89FE330
:100660000E94A100C8CE89B3823169F460E070E0D5
:1006700080E89FE30E945D0060E070E080E89FE317
:100680000E94A100B8CE89B3863169F460E070E0C1
:1006900080E49FE30E94A10060E070E080E89FE3B7
:1006A0000E945D00A8CE89B38A3169F460E070E0F1
:1006B00080E49FE30E945D0060E070E080E89FE3DB
:1006C0000E94A10098CE89B3843169F460E070E0A3
:1006D00080E89FE30E945D0060E070E080E89EE3B8
:1006E0000E94A10088CE89B38A3069F460E070E08E
:1006F00080E89EE30E945D0060E070E080E89FE398
:100700000E94A10078CE60E070E080E89FE30E9444
:10071000A10060E070E080E89FE30E945D006BCE86
:1007200033D088F09F5790F0B92F9927B751A0F098
:10073000D1F0660F771F881F991F1AF0BA95C9F775
:1007400012C0B13081F03AD0B1E0089537C0672FC0
:10075000782F8827B85F39F0B93FCCF38695779525
:100760006795B395D9F73EF490958095709561950E
:100770007F4F8F4F9F4F089557FD9058440F551F3F
:1007800059F05F3F71F04795880F97FB991F61F013
:100790009F3F79F087950895121613061406551F8A
:1007A000F2CF4695F1DF08C0161617061806991FF6
:1007B000F1CF86957105610508940895E894BB27EB
:1007C00066277727CB0197F9089566D008F48FEF55
:1007D00008950BD09CC08DD028F092D018F09523AE
:1007E00009F07EC083C01124EACFC6DFA0F3959F35
:1007F000D1F3950F50E0551F629FF001729FBB2708
:10080000F00DB11D639FAA27F00DB11DAA1F649FB3
:100810006627B00DA11D661F829F2227B00DA11D66
:10082000621F739FB00DA11D621F839FA00D611DEC
:10083000221F749F3327A00D611D231F849F600D0D
:10084000211D822F762F6A2F11249F5750408AF046
:10085000E1F088234AF0EE0FFF1FBB1F661F771FD2
:10086000881F91505040A9F79E3F510570F038C045
:10087000A6CF5F3FECF3983EDCF3869577956795BE
:10088000B795F795E7959F5FC1F7FE2B880F911DF0
:100890009695879597F90895990F0008550FAA0B1B
:1008A000E0E8FEEF16161706E807F907C0F0121683
:1008B0001306E407F50798F0621B730B840B950B86
:1008C00039F40A2661F0232B242B252B21F40895DB
:1008D0000A2609F4A140A6958FEF811D811D089578
:1008E00097F99F6780E870E060E008959FEF80ECE3
:1008F000089500240A941616170618060906089586
:1009000000240A9412161306140605060895092EEB
:100910000394000C11F4882352F0BB0F40F4BF2B5A
:1009200011F460FF04C06F5F7F4F8F4F9F4F08959A
:04093000F894FFCF69
:100934003333B33E6C696E65666F6C6C6F77696E4A
:100944006700306230303030313030300030623067
:10095400303030303130300030623030303131308E
:10096400303000306230303030303131300030627D
:10097400303030313030303000306230303131306E
:100984003030300030623030303030303130003090
:10099400623030303030303131006E696E657479D8
:1009A400207269676874006E696E657479206C657D
:1009B4006674006A756E6374696F6E0000000000EF
:1009C4000000005F00000007000700147F147F147C
:1009D400242A7F2A122313086462364955225000C0
:1009E40005030000001C2241000041221C001408E1
:1009F4003E081408083E08080050300000080808A3
:100A04000808006060000020100804023E514945B7
:100A14003E00427F400042615149462141454B31ED
:100A24001814127F1027454545393C4A494930017D
:100A3400710905033649494936064949291E0036D4
:100A44003600000056360000081422410014141425
:100A54001414004122140802015109063249794153
:100A64003E7E1111117E7F494949363E4141412262
:100A74007F4141221C7F494949417F090909013EBF
:100A84004149497A7F0808087F00417F410020409E
:100A9400413F017F081422417F404040407F020CC7
:100AA400027F7F0408107F3E4141413E7F090909CE
:100AB400063E4151215E7F0919294646494949317B
:100AC40001017F01013F4040403F1F2040201F3F64
:100AD4004038403F631408146307087008076151E5
:100AE400494543007F414100020408102000414170
:100AF4007F0004020102044040404040000102041F
:100B04000020545454787F484444383844444420A2
:100B1400384444487F3854545418087E0901020C60
:100B24005252523E7F0804047800447D4000204025
:100B3400443D007F1028440000417F40007C04189D
:100B440004787C0804047838444444387C1414142D
:100B540008081414187C7C080404084854545420CD
:100B6400043F4440203C4040207C1C2040201C3C4E
:100B74004030403C44281028440C5050503C4464BD
:100B8400544C44000836410000007F000000413608
:0C0B940008001008081008784641467858
:00000001FF
